:020000040800F2
:2000000098060020CD0100081D0C0008190C00081B0C0008FB020008390D0008000000006C
:20002000000000000000000000000000210C0008FD020008000000001F0C0008230C00081A
:20004000E7010008E7010008E7010008E7010008E7010008E7010008E7010008E701000820
:20006000E7010008E7010008E7010008E7010008E7010008E7010008E7010008E701000800
:20008000E7010008E7010008E7010008E7010008E7010008E7010008E7010008E7010008E0
:2000A000E7010008E7010008E7010008E7010008E7010008E7010008E7010008E7010008C0
:2000C000E7010008E7010008E7010008E7010008E7010008E7010008E7010008E7010008A0
:2000E000E7010008E7010008E7010008E7010008E7010008E7010008E7010008E701000880
:20010000E7010008E7010008E7010008E7010008E7010008E7010008E7010008E70100085F
:20012000E7010008E7010008E7010008E701000800F002F800F03AF80AA090E8000C8244FF
:200140008344AAF10107DA4501D100F02FF8AFF2090EBAE80F0013F0010F18BFFB1A43F092
:2001600001031847380C0000580C0000103A24BF78C878C1FAD8520724BF30C830C144BFD4
:2001800004680C60704700000023002400250026103A28BF78C1FBD8520728BF30C148BFC9
:2001A0000B6070471FB51FBD10B510BD00F06BF81146FFF7F7FF00F0D1FD00F089F803B45F
:2001C000FFF7F2FF03BC00F091F800000948804709480047FEE7FEE7FEE7FEE7FEE7FEE7F2
:2001E000FEE7FEE7FEE7FEE704480549054A064B70470000850C00083101000898000020EF
:20020000980600209802002098020020B2F120030AD5C2F1200320FA02F001FA03F321FA19
:2002200002F140EA0300704721FA03F04FF0000170474FF0000200B5134694469646203984
:2002400022BFA0E80C50A0E80C50B1F12001BFF4F7AF090728BFA0E80C5048BF0CC05DF8D6
:2002600004EB890028BF40F8042B08BF704748BF20F8022B11F0804F18BF00F8012B70476C
:20028000704770477047754600F02CF8AE4605006946534620F00700854618B020B5FFF7B4
:2002A000A3FFBDE820404FF000064FF000074FF000084FF0000B21F00701AC46ACE8C00913
:2002C000ACE8C009ACE8C009ACE8C0098D46704710B50446AFF300802046BDE81040FFF7FB
:2002E0006EBF0000004870473800002001491820ABBEFEE7260002007047FEE7704700002F
:2003000010B5064800F0D8FC05490840B0F1005F01D0002010BD012010BD0000002000089C
:200320000000FF2F70B5074C074D084E204600F0C3FCA84201D1012070BD241DB442F5D34F
:20034000002070BD00F80708AA5555AAFFFF07083E220249024800F0B1BC000000200008C4
:200360000010020810B5FFF7DDFF002807D0FFF7EFFFBDE810400121014800F085BC10BD8B
:2003800000F8070806490020C8610648016941F004010161016941F0400101617047000079
:2003A0001800002000200240064A0021D16106490A6942F002020A614861086940F0400013
:2003C000086170471800002000200240044B0022DA61044A136943F001031361018070470A
:2003E000180000200020024014480022C168CB06134904D5CA6942F00202CA611022C368C5
:200400005B0705D5CB6943F00103CB6142F00402C369DB0707D0CB6943F00403CB61C16928
:2004200021F00101C161A2F58071013901D0C2607047C16921F00101C161704700200240A3
:200440001800002070B5054600F0E6F80646114C09E0681C07D025B100F0DEF8801BA84218
:2004600001D9032070BDE068C007F2D1E068800601D52020E060E068C00605D4E069C00765
:2004800002D1E068400703D5FFF7AEFF012070BD002070BD0020024004494868044A1060C7
:2004A0005060096881F308880047000000200008000000202DE9F047054626480F46012606
:2004C000017E01290FD00121814601762868DFF888804CF25034022808D0A2462046FFF7BD
:2004E000B1FFA8B131E00220BDE8F0872046FFF7A9FF08BB0120FFF745FF2046FFF7A2FF85
:20050000D8F81010064621F00401C8F810101CE04FF0FF303860AC6811E02046FFF744FF03
:200520005046FFF78FFFD8F81010060021F00201C8F8101001D03C6007E004F50064D5E948
:20054000020100EBC120A042E7D8002189F818103046C9E7180000200020024003480169EC
:2005600041F080010161002070470000002002402DE9F05F07461C4888460024017E15464C
:200580001E46012909D00121814601764CF2503A5046FFF757FF18B122E00220BDE8F09FC9
:2005A000012F02D0022F00D00427D346DFF83CA0220128463146FFF729FE81B208EB4400B2
:2005C000FFF704FF5846FFF73DFFDAF8102022F00102CAF8102018B9641CE4B2BC42E7D3AA
:2005E000002289F81820D9E71800002000200240064900200A69120607D5054A4A60054AA8
:200600004A600969090600D5012070470020024023016745AB89EFCD0148806870470000F8
:200620000800002002488168027811448160704708000020074810B5016841F010010160B0
:20064000032000F067F80F2000F006F800F024F8002010BD0020024070B50D4D04464FF4A4
:200660007A712878B1FBF0F00A490968B1FBF0F000F0BEFA48B9102C07D200222146501E5E
:2006800000F028F800206C6070BD012070BD000008000020140000200C4808B5816941F05B
:2006A00001018161816901F001010091C16941F08051C161C06900F080500090044841682C
:2006C00021F0E06141F00071416008BD0010024000000140F0B40E4B1B680C46C3F3022380
:2006E000C3F10705042D00D90425191D072901D2002300E0DB1E012606FA05F1491E2140ED
:2007000099409E40761E16403143F0BC00F015BB0CED00E0064900F0070208684FF6FF0380
:20072000184040EA0220034A10430860704700000CED00E00000FA052DE9F0470F460500D7
:2007400061D0434E306800F00700B84209D2306820F0070038433060306800F00700B84230
:2007600051D128683B4C810712D5400703D5606840F4E06060602878000703D5606840F43B
:20078000605060606068A96820F0F000084360602878C00728D06868012810D0216802281A
:2007A00010D0890700292EDA616821F0030101436160FFF731FF804641F288390DE021685F
:2007C0008903EFE78901EDE7FFF726FFA0EB0801494502D90320BDE8F0876068696800F079
:2007E0000C00B0EB810FEFD1306800F00700B8420BD9306820F0070038433060306800F053
:200800000700B84201D00120E5E72878400705D56068E96820F4E060084360602878000739
:2008200006D56068296920F4605040EAC100606000F018F86168084AC1F30311515CC8407C
:200840000649086006480068FFF706FF0020C2E700200240001002408C0D000814000020DE
:200860000C00002012A185B00FC98DE80F0014A0144A006804905168134801F00C03042BB7
:2008800010D0082B0ED1C1F38343C9031DF803000AD5516804AAC1F34041515C0A4A5043F9
:2008A000B0FBF1F005B0704708494843FAE7000002030405060708090A0B0C0D0E0F1010EC
:2008C000010200000010024000127A0000093D002DE9F84F040070D02078C04DC00749D0CB
:2008E0006868C0F38100012807D06868C0F38100022809D16868C00306D52868800339D55D
:2009000060680028E7D035E06068B0F5803F0BD010B1B0F5A02F11D0286820F48030286022
:20092000286820F4802002E0286840F480302860606890B1FFF770FE06460AE0286840F42E
:2009400080202860F0E700BFFFF766FE801B642873D828688003F7D50CE0FFF75DFE0646A5
:2009600005E000BFFFF758FE801B6428F0D828688003F7D420789A4E80074FF001094FF02B
:20098000000839D5686810F00C0F07D06868C0F38100022809D16868C00306D428688007F3
:2009A00014D52069012808D110E02069B0B1C6F80090FFF731FE074605E00AE1FFF72CFE39
:2009C000C01B0228C4D828688007F7D52868616920F0F80040EAC10028600DE0C6F8008093
:2009E000FFF71AFE074604E0FFF716FEC01B022823D828688007F7D4207800072CD579486B
:200A0000A169D9B1C0F80090FFF706FE074604E0FFF702FEC01B02280FD8686A8007F7D5C8
:200A200071484FF4FA510068B0FBF1F0009000BF0098411E0091FAD20EE080E0C0F8008052
:200A4000FFF7EAFD074604E0FFF7E6FDC01B022875D8686A8007F7D42078400760D5E869D4
:200A60000027C00008D4E86940F08050E861E869012700F0805000905C480168C90513D48E
:200A80000168834641F480710160FFF7C5FD824606E000BFFFF7C0FDA0EB0A0064284ED87E
:200AA000DBF80000C005F5D5E06801280AD008B1052813D0286A20F001002862286A20F0F1
:200AC000040002E0286A40F001002862E06841F2883B98B1FFF7A0FD82460BE0286A40F054
:200AE00004002862EEE700BFFFF796FDA0EB0A0159455AD8286A8007F6D50CE0FFF78CFD96
:200B0000824605E0FFF788FDA0EB0A0159454CD8286A8007F6D41FB1E86920F08050E86128
:200B2000E06988B36968C1F38101022944D00228C6F8608004D0FFF76FFD044638E034E077
:200B4000FFF76AFD074604E0FFF766FDC01B02282BD828688001F7D4206AB0F5803F05D106
:200B60006868A16820F4003008436860D4E908010843696821F4741108436860C6F8609008
:200B8000FFF74AFD044606E025E000BFFFF744FD001B022809D828688001F7D51BE000BF30
:200BA000FFF73AFD001B022802D90320BDE8F88F28688001F4D40EE00128F7D06868226A86
:200BC00000F48031914204D1616A00F47010884201D00120EAE70020E8E7000000100240BB
:200BE0000000424280044242140000200070004010B5401EB0F1807F01D3012010BD4FF0C1
:200C0000E02460610F21601700F097F80020A06107202061002010BDFEE7FEE7FEE77047CD
:200C20007047FFF7FFBC30B58FB028216846FFF700FB14210AA8FFF7FCFA01210804CDE989
:200C400000100024029402250491CDE907504FF4E01009906846FFF73BFE08B172B6FEE792
:200C60000F20CDE90A054FF48060CDE90C4002210AA80E94FFF760FD002801D072B6FEE78B
:200C80000FB030BD7047000070B586B000260C4605460496FFF7ACFC06493520C860CDE919
:200CA000025404A968460096FFF704FCFFF756FC06B070BD00200240006870472DE9F04FF6
:200CC00085B092460E465FEA000930D0002E2ED05FEA49502BD1700529D183465C46CDF8B8
:200CE00010B0FFF785FC13493520C860CDE9026A04A968460094FFF7DDFB002513E00024C9
:200D000009EBC52806EBC52758F804205B4639190220FFF72DFC40B9241DA4B2B4F5006FC5
:200D2000F2D36D1CADB25545E9D3FFF717FC05B0BDE8F08F00200240FEE70907090E002838
:200D400004DB00F1E02080F80014704700F00F0000F1E02080F8141D7047000008B5FFF77D
:200D600069FCFFF760FF0848816941F004018161806900F004000090FFF7F4FAFFF7C0FA66
:200D800008B1FFF789FBFEE70010024000000000000000000102030406070809BC0D0008F0
:200DA00000000020180000006C010008D40D0008180000208006000088010008000000004E
:200DC000000000000100000010000000000000000024F400FFFFFFFFFFFFFFFFFFFFFFFFF6
:200DE000FFFFFFFFFFFFFFFFFFFFFFFFFFFFFFFFFFFFFFFFFFFFFFFFFFFFFFFFFFFFFFFF13
:200E0000FFFFFFFFFFFFFFFFFFFFFFFFFFFFFFFFFFFFFFFFFFFFFFFFFFFFFFFFFFFFFFFFF2
:200E2000FFFFFFFFFFFFFFFFFFFFFFFFFFFFFFFFFFFFFFFFFFFFFFFFFFFFFFFFFFFFFFFFD2
:200E4000FFFFFFFFFFFFFFFFFFFFFFFFFFFFFFFFFFFFFFFFFFFFFFFFFFFFFFFFFFFFFFFFB2
:2020000078B2002041220008857200082F600008817200086D40000859FC00080000000068
:20202000000000000000000000000000F1BC000861470008000000003575000849DD00085B
:202040005B2200085B2200085B2200085B2200085B2200085B220008E14D0008FD4D0008DA
:202060005B2200085B220008314E00085B2200085B2200085B2200085B2200085B22000836
:202080005B2200085B2200085B2200085B2200085B2200085B2200085B220008554E0008F2
:2020A0005B2200085B2200085B2200085B22000851DE000805E0000839E000085B22000842
:2020C0005B2200085B2200085B2200085B2200085B220008DDEA00085B22000851EB0008CF
:2020E0005B2200085B2200085B2200085B2200085B2200085B2200085B2200085B220008B8
:202100005B2200085B2200085B2200085B2200085B2200085B220008CDE000085B22000867
:202120005B2200085B2200085B2200085B22000800F002F800F074F80AA090E8000C824451
:202140008344AAF10107DA4501D100F069F8AFF2090EBAE80F0013F0010F18BFFB1A43F038
:2021600001031847143901003439010010F8013B0A4413F0030408BF10F8014B1D1108BF94
:2021800010F8015B641E05D010F8016B641E01F8016BF9D1002D15D010F8014B03F00C03F7
:2021A0000C2BA1EB04040ABF10F8013BA4EB8314A4EB032405F1010314F8016B5B1E01F887
:2021C000016BF9D5914238BF10F8013BD1D370470023002400250026103A28BF78C1FBD88D
:2021E000520728BF30C148BF0B607047662911F0B285642900F0A280782900F0068173296B
:2022000000F06E85002070471FB500F07FFD04000020002110F06CFDE0601FBD10B510BD68
:2022200000F074FE1146FFF7EFFF0FF019F900F092FE03B4FFF7F2FF03BC0EF07AFE00009D
:202240000948804709480047FEE7FEE7FEE7FEE7FEE7FEE7FEE7FEE7FEE7FEE70448054942
:20226000054A064B70470000F1DD0008312100087886002078B20020788A0020788A00202B
:20228000704700000FB4044910B503AA029800F02BFD10BC5DF814FB9402002070B50446FE
:2022A00085690068C10601D5302600E02026C00707D070BDD4E9012130469047206A401CD2
:2022C00020626D1EF6D570BD70B5044685690078C00707D170BDD4E9012120209047206AD8
:2022E000401C20626D1EF6D570BD70B50C460546012A05D02878800600D5EA69002302E068
:20230000012305E05B1C934202D2E05C0028F9D1A869E618C01AA861286A1844286228468E
:20232000FFF7BCFF04E0D5E9012114F8010B9047B442F8D32846FFF7C7FF70BD2DE9F041DA
:202340000646002410687529314616A510D0AFF30080002802DA404213A507E031688A0774
:2023600001D512A502E0490704D511A5012401E0AFF3008000210A2206F1240709E0B0FBE4
:20238000F2FCB0FBF2F302FB1C00303078541846491C0028F3D123462A463046BDE8F041A6
:2023A00000F00EBA000000002D0000002B00000020000000F0B40D460188090502D5214C1B
:2023C0007C4402E01F4C7C440E34002100F1240608E002F00F071209E75D42EA03721B099E
:2023E0007754491C52EA0307F3D102780023120704D5702D06D009B1022311342246F0BC69
:2024000000F0DEB901231034F8E770B504460D4621461068AFF30080024629462046BDE869
:2024200070400023C6E7D21D22F00703D3E90023C0E70368126843F0200303600823C3619E
:202440000023B7E7E03301002DE9F05F894604464FF0000ADFF874B1FB44C0F820A02046C7
:20246000E1688847002874D0252806D0D4E901219047206A401C2062F1E700265F4620468E
:20248000E16888472028054607DB312D05D2781910F8200C08B10643F1E7B00701D526F038
:2024A0000406C4F81CA00027C4F818A02A2D09D028460EF037FD38B304EB8708303DC8F899
:2024C000185019E059F8041B204604EB87029161E1688847012F054618D1E069002820DA74
:2024E00026F020061DE0D8F8180000EB800005EB40003038C8F818002046E1688847054617
:202500000EF010FD0028EED1012F0AD02E2D08D12046E16888477F1C0546022F46F020069A
:20252000C4DBA069002803DA404246F00106A061F00701D026F010066C2D0BD0682D09D058
:202540004C2D39D06A2D35D0742D35D07A2D33D016E038E0E1682F4620468847B8420546C7
:2025600009D16C2F26D04FF48060E168064320468847054604E06C2F1AD04FF480700643D6
:202580000DB3A5F14100192802D8203546F400664A462946204626604E46FFF727FE80B1C9
:2025A00001280BD0F61D26F0070000F1080956E74020E4E78020D8E70020D6E706F104093D
:2025C0004DE7284652E7206ABDE8F09F7033010040EA010310B59B070FD1042A0DD310C863
:2025E00008C9121F9C42F8D020BA19BA884201D9012010BD4FF0FF3010BD1AB1D30703D041
:20260000521C07E0002010BD10F8013B11F8014B1B1B07D110F8013B11F8014B1B1B01D130
:20262000921EF1D1184610BD032A40F2308010F0030C00F0158011F8013BBCF1020F6244B1
:2026400098BF11F801CB00F8013B38BF11F8013BA2F1040298BF00F801CB38BF00F8013BFF
:2026600011F0030300F02580083AC0F0088051F8043B083A51F804CBA0E80810F5E7121DB7
:202680005CBF51F8043B40F8043BAFF30080D20724BF11F8013B11F801CB48BF11F8012BEC
:2026A00024BF00F8013B00F801CB48BF00F8012B704710B5203AC0F00B80B1E81850203AA8
:2026C000A0E81850B1E81850A0E81850BFF4F5AF5FEA027C24BFB1E81850A0E8185044BF24
:2026E00018C918C0BDE810405FEA827C24BF51F8043B40F8043B08BF7047D20728BF31F89C
:20270000023B48BF11F8012B28BF20F8023B48BF00F8012B704702F0FF0343EA032242EAB0
:20272000024200F002B84FF000020429C0F0128010F0030C00F01B80CCF1040CBCF1020FD6
:2027400018BF00F8012BA8BF20F8022BA1EB0C0100F00DB85FEAC17C24BF00F8012B00F8FF
:20276000012B48BF00F8012B70474FF0000200B5134694469646203922BFA0E80C50A0E8A0
:202780000C50B1F12001BFF4F7AF090728BFA0E80C5048BF0CC05DF804EB890028BF40F827
:2027A000042B08BF704748BF20F8022B11F0804F18BF00F8012B70477047704770477047C2
:2027C0002DE9F0470D4699469246044600F124080168880604D5E06921F01001216000E09F
:2027E0000120A84201DD471B00E00027A1697A1902EB0900081AA0612078C00602D4204637
:20280000FFF74CFD002608E0D4E901211AF806009047206A401C761C20624E45F4DB2078A9
:20282000C0060AD52046FFF739FD06E0D4E9012130209047206A401C2062381EA7F1010717
:20284000F4DC07E0D4E9012118F805009047206A401C2062281EA5F10105F3DC2046FFF781
:2028600033FD2078000602D50220BDE8F0870120FBE770472DE9FF4F0C461E464FF0FF372C
:202880008BB0D2E90001DDF860800A908A46C1F30A5505B93D46002108464FF00000BAF175
:2028A000000F00F4400005DA00EB80004FF4400101EA50004FEA9059B9F1010F00DDB94614
:2028C0000A9850EA4A000ED044F61050A5F2FF3545432F14B8F1000F1ED07542291E1EDD25
:2028E000C9F100021CE0B8F1010F4FF0000001D0302103E0F24305E02154401CB042FBDB70
:2029000030460022002121540B99C1F80880C1E900200FB0BDE8F08FBD1B6D1CDEE74A4641
:2029200000DA694206A800F07BFA06AB93E8070003AB83E8070050460A9900F055FB8DE8BE
:202940000700A0F500501F3800900398002D09DD42F21F014A46084403A90390684600F0E9
:20296000B4FD08E0A0F500504A461F3803A90390684600F0BEFD8DE807000004000C03D0FB
:202980004FF0FF30410800E01046B8F1000F03D00022009215461EE0751E05D400F0BAF9A3
:2029A000303262556D1EF9D5B3460122084302D000227F1C04E02078302801D100227F1E4A
:2029C000002A099786D01DE0112D07DA00F0A2F9303262556D1C50EA0102F5D1084302D06E
:2029E0000098C8B10EE00021681E05E0235C625C63542254401E491C8142F7DBAB46A81BD6
:202A0000401E0990002004F80B000B98099AC0F80880C0E9002B7CE711264FF0000859E71D
:202A20002DE9F04F88460446D21D22F0070191B0D1E90001CDE90A010EF060FA02460B9820
:202A4000C00F01D02D2007E02068810701D52B2002E0202101EAC000032A099001D0072ADB
:202A600005DB03464146204600F09AF90BE12078800601D5E06900E00620B8F1650F8146AA
:202A800006D0B8F1660F18D0B8F1670F70D131E00020B9F1110F009001DB112301E009F184
:202AA00001030AAA01A90CA8FFF7E4FEDDE90C70002609F10105834647E001204B4600908E
:202AC0004FF000470AAA01A90CA8FFF7D3FEDDE90DB00C995D46002610B909F101000D18BD
:202AE000B9EB050003D4C0F1FF3609F10105A5EB09002BE0B9F1010F01DA4FF001090020CE
:202B0000B9F1110F0090484601DD112300E003460AAA01A90CA8FFF7ADFEDDE90C704D460A
:202B200000268346207800070AD4AB4500DA5D4601A8012D04DD411911F8011C302907D054
:202B40004F4502DA17F1040F04DA012082460FE06D1EEEE7002F02DCED1B3E4403E0781CC6
:202B6000A84200DD7D1CB81B00F1010A4FF000472078000703D4AA4501DB4FF0FF3A0021C6
:202B8000B7F1004F0DF143088DF8431024D002202B23002F01DA7F422D230A21021EA0F1C2
:202BA000010000DC5FB197FBF1FC97FBF1F201FB1C7C17460CF1300C08F801CDEEE7A8F1CE
:202BC000010003702188090501D5452100E06521A0F1010800F8011C09980FA9A1EB080785
:202BE000FF1D00B10120411901EBEA70A1693844081A401EA0612078C00602D42046FFF7B0
:202C00004DFB099828B1D4E901219047206A401C20622078C00622D52046FFF73FFB1EE0EB
:202C2000002E04DBB34502DD01A8805D00E03020D4E901219047206A401C2062761CAAF1AF
:202C400001005FEA000A0AD100F060F8C0680168405CD4E901219047206A401C2062281E6C
:202C6000A5F10105DCDC07E0D4E9012118F8010B9047206A401C2062381EA7F10107F3DC1A
:202C80002046FFF721FB032011B043E601694A1C02610878704700B58FB0CDE90131002148
:202CA000059105497944CDE9031011466846FFF7CBFB0FB000BD0000E5FFFFFF10B543691A
:202CC00013B1AFF3008001E0FFF70FFB012010BD127800F124010A7000224A700122EDE752
:202CE00011684FF0FF32E9E7074B70B50D467B44FFF7D1FF0446284600F000F910B14FF02B
:202D0000FF3070BD204670BD27E50000004870473886002030B5B0F10A024FEA900E71F110
:202D200000034EEA817EB0EB0E0061EB91014FEA101E4EEA017E10EB0E0041EB11114FEA24
:202D4000102E4EEA016E10EB0E0041EB11214FEA104E4EEA014E10EB0E0041EB114140182A
:202D600041F100014FEAD00040EA41704FEAD10110EB80054FEA810444EA907444EB01048D
:202D80006D1944EB0404521BA3414FF0000348BF0A3200D530BD401C41F1000130BD000062
:202DA0002DE9F0411F46044603260168072A01F4006004DB08B116A505E016A503E008B176
:202DC00015A500E015A521F010002060A069C01EA0610FB1401EA0612046FFF75FFA4FB142
:202DE000D4E9012138469047206A401C2062C01C206206E0206AFAE7D4E9012115F8010B90
:202E00009047761EF8D22046FFF75EFABDE8F0814E414E006E616E00494E4600696E66007F
:202E20002DE9F047814616468AB0334878440DC88DE80D0030487844801C03AC0DC884E89A
:202E40000D0041F69B300844372190FBF1F290FBF1F5A5F1800501FB12041B3C02D56442DF
:202E6000012000E00020DFF890A080460027FA44AAF1BE0A0DE0E00709D03246684607EBD7
:202E800047010AEB810100F034FB8DE8070064107F1C002CEFD1184F7F44AC3F18E0E807E1
:202EA00014D007EB04100DF1180A90E80E008AE80E00C068F04201D198190890324606A966
:202EC00003A800F016FB03AB83E807006D10641C002DE4D132466946B8F1000F03A802D0EB
:202EE00000F0F3FA01E000F004FBC9E90001C9F808200AB0BDE8F0872C2A0100007B00F0F1
:202F00008000704700487047188600207546FFF7F9FFAE4605006946534620F007008546F1
:202F200018B020B5FFF79AF9BDE820404FF000064FF000074FF000084FF0000B21F0070131
:202F4000AC46ACE8C009ACE8C009ACE8C009ACE8C0098D46704710B50446AFF300802046EA
:202F6000BDE81040FFF765B94FF0013C50F8042B51F8043B9A4221D1A2EB0C03934313EA90
:202F8000CC1317D150F8042B51F8043B9A4215D1A2EB0C03934313EACC130BD150F8042B08
:202FA00051F8043B9A4209D1A2EB0C03934313EACC13DBD04FF00000704700BFD01A01BA80
:202FC000B1FA81F101F0180122FA01F0CB40C1F12001DBB2C0B2C01A2CFA01F3D11A91432D
:202FE00011EAC311E6D170475FEA400C08BF91F0000F4FEA8C234FEAC12243EA51514FEA9C
:203000001C5018BF00F5F0404FEA300018BF41F000415FEA6C5C00F02980BCF1FF3F08BF3A
:2030200040F080407047130C06BF12044FF0100C4FF0000C130E04BF12020CF1080C130F1E
:2030400004BF12010CF1040C930F04BF92000CF1020CD30F04BF52000CF1010C11464FF0F4
:203060000002A0F11F00A0EB0C00704711F0004F08BF704731F000413FF4D5AF0B0C06BF8D
:2030800009044FF0100C4FF0000C0B0E04BF09020CF1080C0B0F04BF09010CF1040C8B0FF7
:2030A00004BF89000CF1020CCB0F04BF49000CF1010CCCF12003A0EB0C0022FA03F302FA44
:2030C0000CF241EA030100F10100704720F07F4C80EA030023F07F47ACEB070303F57C5391
:2030E00000F0004003F1FF032DE980494FEA154B09B44FEA144325EA0B4E24EA03480FF223
:20310000042606EB132749083E785FEA320203FB0667C7F5000707FB06F64FEA54374FEAAD
:20312000D64606F1020607FB066CCCF1005C4FEA1C472CEA074C07FB06F40CFB06F504EBF5
:2031400015464FEA961634BF00204FF000404FEAD13706FB07FC4FEA1C4C0CFB0BF7D21BC1
:2031600003FB0CF761EB07010CFB0EF7B0EB074072EB17420CFB08F734BFA2EB0742B2EBEA
:20318000074261EB17414FEA0C444FEA910706FB07FC4FEA1C4C0CFB0BF7B0EBC74072EB3B
:2031A000573203FB0CF734BFA2EBC742B2EBC74261EB57310CFB0EF7B0EBC70072EB5772EE
:2031C0000CFB08F734BFA2EBC702B2EBC70261EB5771039F4FEA816141EA921104EBCC04DC
:2031E0004FEAD1374FEA826206FB07FC42EA90124FEA80604FEA1C4C0CFB0BF7D21B03FBF1
:203200000CF761EB07010CFB0EF7B0EB074072EB17420CFB08F734BFA2EB0742B2EB0742FE
:2032200061EB17414FEA8C554FEA910704EB9C2406FB07FC4FEA1C4C0CFB0BF7B0EBC74000
:2032400072EB573203FB0CF734BFA2EBC742B2EBC74261EB57310CFB0EF7B0EBC70072EBB9
:2032600057720CFB08F734BFA2EBC702B2EBC70261EB577115EB4C254FEA816141EA921162
:203280004FEA82624FEAD13742EA901206FB07FC44F100044FEA80604FEA1C4C0CFB0BF702
:2032A000D21B03FB0CF761EB07010CFB0EF7B0EB074072EB17420CFB08F734BFA2EB074259
:2032C000B2EB074261EB174115EB1C154FEA813141EA92414FEA823242EA90424FEA803076
:2032E0004FEA0C7644F1000448EA03434EEA0B484FF0000EB2EB080C71EB030724BF6246E8
:2033000039464EEB0E0E4FF0000B0018524149414BEB0B0BB2EB080C71EB03077BF1000B80
:2033200024BF624639464EEB0E0E4FF0000B0018524149414BEB0B0BB2EB080C71EB03074C
:203340007BF1000B24BF624639464EEB0E0E51EA020718BF46F0010616EB0E7655F1000272
:2033600054F1000103D5BDE88901BDE80088BDE88901BDE80048B619524141EB0101A3F193
:203380000103704780807F7E7D7C7B7A7978777676757473727171706F6E6E6D6C6C6B6AAE
:2033A0006A696868676666656464636362616160605F5F5E5E5D5D5C5C5B5B5A5A59595800
:2033C00058575756565555555454535352525251515050504F4F4F4E4E4D4D4D4C4C4C4BC7
:2033E0004B4B4A4A4A49494948484847474747464646454545444444444343434342424207
:2034000042414141002B26D4770021D01CB54FEA370703B44FF010004FF010014FF000003D
:203420000FBCBDE810400BF1010BBBF1010F08BF5FEA170722BF12F1010211F101014FF0B0
:20344000004143F1000300F0004043EA00007047F9D35708DAE746EA064613F1400F4FEAEC
:2034600016461FDD13F1200FDFBF16430A46002120335B42C8D0C3F1200746EA064602FA7E
:2034800007F74FEA164646EA0706C3F1200722FA03F201FA07F721FA03F14FF0000342EAFA
:2034A0000702B1E746EA020646EA06464FEA164646EA0106BCBF46EA0646360C4FF0000370
:2034C0004FF000024FF000019EE72DE9C048934630B491E8380007C831EA400C48BF34EAFF
:2034E000430C03D5FFF7F2FDFFF78CFFF0BCBDE800882DE9C048934630B491E8380007C80B
:2035000010F0804F08BF13F0804F03D100F005F8FFF778FFF0BCBDE8008820F07F4780EAFC
:20352000030023F07F4C07EB0C03A3F57C5300F00040A3F1FE0392F0000F00F0B38095F044
:20354000000F00F077802DE901494FEA11404FEA144621EA004800FB06FC24EA064708FB4A
:2035600006F607FB08F800FB07F718EB06484CEB164C4FEA124B18EB07484FEA15464CEBB7
:20358000174022EA0B4E0BFB06FC25EA06470EFB06F607FB0EFE0BFB07F71EEB064E4CEB60
:2035A000164C4FF000061EEB074E4CEB174B18EB0B0840F1000018EB0E0B58EB000840F18E
:2035C00000008F1A4FF000013CBFC943661B14BFB5EB040C00213CBFC943F61B4FEA17442A
:2035E0004EEA8E0E27EA04454FEA1C4704FB07622CEA074C05FB07F70CFB05F604FB0CFC29
:2036000016EB074642EB174216EB0C4642EB1C421BEB060658EB0202414146EA9E0601D573
:20362000BDE80189B619524141EB0101A3F10103BDE801894FEA14454FEA114724EA054688
:2036400021EA074C05FB07F406FB07F70CFB06F105FB0CFC11EB074144EB17444FEA1247AC
:2036600011EB0C4144EB1C4422EA074C05FB07F206FB07F70CFB06F605FB0CFC16EB0746C2
:2036800042EB174216EB0C4642EB1C456A1854F1000148BF7047B619524141EB0101A3F119
:2036A0000103704795F0000F37D04FEA11424FEA144721EA024624EA074C02FB07F106FBEA
:2036C00007F70CFB06F402FB0CFC14EB074441EB17414FEA154714EB0C4441EB1C4125EA9C
:2036E000074C02FB07F506FB07F70CFB06F602FB0CFC16EB074645EB174516EB0C4645EB1A
:203700001C42121951F1000148BF7047B619524141EB0101A3F1010370474FEA14454FEA75
:20372000114724EA054621EA074C05FB07F106FB07F70CFB06F24FF0000605FB0CFC12EB3A
:20374000074241EB174112EB0C4251EB1C4148BF7047921841EB0101A3F1010370470000D3
:203760002DE9F04F89B082468B46002008904BF080004FF6FF7108F049FA07900798C0F3D6
:2037800007308DF818000798C0F30B0007909DF81800012804D002282AD004287ED14FE0E9
:2037A00007980FF026FD80460022464B0FF070FD0022454BCDE900010FF096FB434A444B4E
:2037C000CDE902010FF090FB424A434BCDE904010FF08AFB06460022404B0FF059FD0446B5
:2037E0000FF09CFA0890089810F028F9079061E007980FF0FEFC04460022324B0FF048FD3E
:2038000006460022304B0FF06FFB304A304BCDE900010FF069FB2F4A2F4BCDE902010FF09C
:2038200063FB00222D4BCDE904010FF031FD80460FF074FA0890089810F000F9079039E094
:2038400007980FF0D6FC00221E4BCDE904010FF01FFD80460022224B0FF046FB0646002294
:20386000204B0FF015FD04460FF058FA089008980FF038FF0646154A154B0FF035FB8046C3
:203880000022184B0FF004FD04460FF047FA0890154908980FF0C0FF089000E004E00898C9
:2038A00010F0CCF8079005E0002007900F208DF8180000BF00BFDDE90601CAE9000109B08D
:2038C000BDE8F08F000004400000B0409A99999999991340CDCCCCCCCCCC12400088C34000
:2038E00000FEAF4000408F400000B64270B504460E4600250EB9254300E0A5432946512015
:2039000008F084F970BD000010B500200F4908600F48006820F0F0000D490860084600682D
:2039200040F03000086000200A49C1F8840102200DF0DEFB01200549086002200DF0D8FB4D
:2039400000200549C1F89C0110BD00009C81224200180140000023420080224208B50121D4
:20396000602004F00BFA8020ADF8000010208DF8030003208DF8020069460C4801F0A6FF8E
:2039800080210A4802F081F80220ADF8000010208DF8030003208DF802006946044801F0B4
:2039A00095FF0221024802F070F808BD001401400018014010B500200F4908600F480068D5
:2039C00020F0F0000D4908600846006840F03000086001200A49C1F8840102200DF088FB57
:2039E00001200549086002200DF082FB00200549C1F89C0110BD00009C81224200180140E9
:203A0000000023420080224270B5054600241648006820F0F000144908600846006840F058
:203A200080000860002615E000201049086002200DF05EFB01200E49C1F89C016006040EE4
:203A40000C48006808B1601CC4B201200DF050FB701CC6B2082EE7DB15B9FFF7ABFF01E04B
:203A6000FFF752FF204670BD001801409C812242008022420401234270B50446174800680E
:203A800020F0F000154908600846006840F03000086000201249086000251CE0E00918B12C
:203AA00001201049086002E000200E4908606006040E02200DF01CFB0120094908600220B8
:203AC0000DF016FB00200849C1F89C0102200DF00FFB681CC5B2082DE0DB70BD0018014077
:203AE0009C812242840123420080224208B50121602004F043F98020ADF8000004208DF8FA
:203B0000030003208DF802006946084801F0DEFE0220ADF8000004208DF8030003208DF811
:203B200002006946024801F0D1FE08BD001401400018014010B50F48006820F0F0000D497D
:203B400008600846006840F03000086001200A4908600A49C1F89C0104200DF0C9FA0020F6
:203B60000549086004200DF0C3FA00200349C1F89C0110BD001801408401234200802242FB
:203B800010B50F48006820F0F0000D4908600846006840F03000086000200A4908600A4937
:203BA000C1F8840104200DF0A3FA0120054908600549C1F8840104200DF09AFA10BD000024
:203BC000001801409C8122420000234210B500241348006820F0F000114908600846006882
:203BE00040F08000086001200E4908600DF080FA01200D49C1F89C010DF07AFA07E0601CB5
:203C0000C4B2FA2C03DDFFF7BBFF012010BD0548803800680028F2D10449086000BFF5E7E2
:203C20000018014084012342008022429C8122422DE9F04106460F46154698460024FFF7A1
:203C400079FF3046FFF718FFFFF7C0FF3846FFF713FFFFF7BBFFFFF76DFF711CC8B2FFF71F
:203C60000BFFFFF7B3FF00BF05E00120FFF7CCFE2855601C84B2A8F10100A042F5DC002071
:203C8000FFF7C2FE2855FFF77BFFBDE8F0812DE9F04180460D4616461F46FFF74BFF404684
:203CA000FFF7EAFEFFF792FF2846FFF7E5FEFFF78DFF002406E0305DFFF7DEFEFFF786FFF2
:203CC000601CC4B2BC42F6DBFFF75AFF0A200DF0EBF9BDE8F08110B541F6FF7000F01CF844
:203CE0000446552C01D1002010BD552141F6FF7000F04EF80A200DF0D7F941F6FF7000F05B
:203D00000BF80446552C01D10020EDE70120EBE710B500F027FD10BD70B50446002600F0F1
:203D20009BFDA02000F0E4FD00F01CFE201200F0DFFD00F017FE2546E11704EB116109126E
:203D4000A4EB0121C8B200F0D3FD00F00BFE00F083FDA12000F0CCFD00F004FE002000F093
:203D600043FD064600F09EFD304670BD70B505460C46164606E02178284600F009F8681C09
:203D800085B2641C301EA6F101018EB2F3D170BD70B504460E4600F05FFDA02000F0A8FDF0
:203DA00000F0E0FD201200F0A3FD00F0DBFD2546E11704EB11610912A4EB0121C8B200F0B2
:203DC00097FD00F0CFFD304600F092FD00F0CAFD00F068FD0A200DF067F970BD2DE9F14F88
:203DE00086B000200590049003F0A6FB58B306980FF078FC80462E4A2E4B0FF075F8064625
:203E000000222D4B0FF084FB02460B46CDE9000100202A490FF068F80022294BCDE90201F9
:203E20000FF062F804460022264B0FF031FA82460EF074FF059005980FF000FE80B240F454
:203E40008060049030E006980FF04CFC184A194BCDE902010FF048F880460022164B0FF0F3
:203E600057FB824652460B46002014490FF03CF806464FF06632144B0FF04AFB04460EF081
:203E80004DFF059005980FF02DFC80460F4A104B0FF02AF8064600220E4B0EF071FF044662
:203EA0000FF07AF980B20490049807B0BDE8F08F9CC420B07268F33F0000F03F00408F40D9
:203EC000000059400000904066265440F6285C8FC2F5D83F0000E03F38B504460720009075
:203EE00000236A4607218020FFF7D1FE012C03D10F2000F018F804E0022C02D12F2000F00E
:203F000012F80920009000236A4609218020FFF7BEFE38BD10B50446022322461F2180201E
:203F2000FFF786FE10BD38B504468DF8004001236A4643218020FFF7AAFE38BD10B58AB0D4
:203F400038A000680490384801780078401C364A10701E2963DB0020114608703348007859
:203F6000012807D031480078022803D02F480078032810D12E48C178012304AA2B480078EC
:203F800000F086FE2A48C1780A2305AA2748007800F05CFD08E00A2025490090C87805ABF6
:203FA000012204A90BF052F922A0FEF76BF9002406E005A8015D23A0FEF764F9601CC4B2B4
:203FC0000A2CF6DB20A0FEF75DF90020029003909DF815009DF8141040EA0120ADF80A002D
:203FE0009DF817009DF8161040EA0120ADF80C00BDF80C30BDF80A209DF8081013A0FEF739
:2040000041F9BDF80A004FF6FF71884206D0BDF80C00884202D002A807F04AFC00BF0AB095
:2040200010BD00001C0000002A0B00200B0B0020230B0020426D7720747020726561643A9E
:2040400000000000257820000D0A0000426D77207470206E756D6265722025642058202553
:204060006409592025640D0A0000000000BFFEE7014648780A7840EA0220704701460878C3
:2040800000064A7840EA02408A7840EA0220CA781043704730B502460B462E480078834221
:2040A00014D02C48037000200AE02B4901EB8004C0EBC001891C114409682160411CC8B218
:2040C000244909788842F0DB012030BD00213BE0214810F82140C1EBC100801C105C844206
:2040E0001DD11D4800EB81004478C1EBC100C01C105C844213D1184800EB81008478C1EB72
:20410000C100001D105C844209D1134800EB8100C478C1EBC100401D105C844212D0084686
:204120000AE00D4C04EB8005C0EBC004A41C144424682C60441CE0B2064C2478A042F0DB9C
:204140000120C2E7481CC1B2024800788142BFDB0020BAE72B0B0020824500202DE9F34F49
:2041600085B0814600260027B24600240025A046A34633E001A8069900F0CAF8DDE9010111
:20418000CDE903019DF80C00012805D1049880B20644601CC4B214E09DF80C00022805D126
:2041A000049880B20744681CC5B20AE09DF80C00042806D1049880B2824408F1010000F0DF
:2041C000FF0801200CF070FF9DF80C1026A0049AFEF758F80BF1010000F0FF0BBBF10A0F36
:2041E000C8DB062C0DDD05EB4500C0EBC51006EB80066019B6FBF0F0049001208DF80C0084
:2042000017E0062D08DDE0192919B0FBF1F0049002208DF80C000CE0B8F1060F09DD0AEBFC
:20422000070008EB0501B0FBF1F0049004208DF80C009DF80C2018A0049B0699FEF722F8E3
:204240009DF80C1004AA069808F0A4FA9DF80C2020A0049B0699FEF715F8DDE90301C9E98E
:20426000000107B0BDE8F08F43757272656E744465746563745F496E7374727563742073D8
:20428000746174653A2025782C726573756C743A2025780D0A00000043757272656E74209D
:2042A0004465746563742020202020202063757272656E745F63683A2025782C73746174B9
:2042C000653A2025782C726573756C743A202564200D0A0043757272656E7420436F6D700B
:2042E000656E736174696F6E2063757272656E745F63683A2025782C73746174653A20254D
:20430000782C726573756C743A202564200D0A002DE9F0479CB080468A4600201B901A909C
:20432000002500261990002728210FA8FEF71DFA282105A8FEF719FA0020039004900024ED
:204340008146FF2228210FA8FEF7E5F900BF3BE0514601A8FFF704FADDE90101CDE9030112
:204360009DF80C00012807D1049880B21B9908441B90681CC5B218E09DF80C00022807D18C
:20438000049880B21A9908441A90701CC6B20CE09DF80C00042807D1049880B21999084445
:2043A0001990781CC7B200E00AE00FAADDE9030102F07AF905AADDE9030101F03AFE00BF34
:2043C00009F1010000F0FF09B9F1320FC0DB1E2D17DD0FAA1BA9012007F00EF90446281BFC
:2043E000C5B20FAA1BA9012007F006F90446281BC5B21B98B0FBF5F0049001208DF80C0025
:2044000038E01E2E17DD0FAA1AA9022007F0F4F80446301BC6B205AA1AA9022007F0ECF847
:204420000446301BC6B21A98B0FBF6F0049002208DF80C001EE01E2F17DD0FAA19A9042007
:2044400007F0DAF80446381BC7B205AA19A9042007F0D2F80446381BC7B21998B0FBF7F0CE
:20446000049004208DF80C0004E0002004900F208DF80C00DDE90301C8E900011CB0BDE8AE
:20448000F087000010B58AB00020069007900890099053A207CA03AB07C354A000680290FC
:2044A0000020019052480078012807D050480078022803D04E480078032816D1012301AA3D
:2044C00024214B48007800F0E3FB0A2306AA24214748007800F0BAFA06230DF12202242161
:2044E0004348007800F0B2FA08E0102041490090C87806AB012201A90AF0A8FE3EA0FDF7BB
:20450000C1FE002406E006A8015D3EA0FDF7BAFE601CC4B2102CF6DB3BA0FDF7B3FE344841
:204520000078012807D032480078022803D03048007803282CD1092303AA24212C480078F2
:2045400000F0A6FB4FF4FA700CF0AEFD012301AA24212748007800F09BFB012306AA2421DC
:20456000184600F073FA022302AA24212048007800F08EFB012301AA24211D48007800F030
:2045800087FB012306AA2421184600F05FFA21E01849C878092203A90AF05AFF4FF4FA7060
:2045A0000CF082FD012013490090C87806AB012201A90AF04BFE0F49C878022202A90AF011
:2045C00047FF01200B490090C87806AB012201A90AF03CFE32200CF067FD0AB010BD000065
:2045E00000FF013B00004F6D17000000000800000B0B0020230B002054705F696E69743A10
:2046000020000000257800000D0A000010B58AB040A00068049040480078012807D03E4865
:204620000078022803D03C480078032821D1012304AA24213848007800F02AFB012305AAF5
:2046400024213548007800F001FA0A200CF02CFD01230DF1110224212F48007800F018FB7A
:204660000A230DF1150224212B48007800F0EEF915E0012029490090C87805AB012204A919
:204680000AF0E4FD0A200CF00FFD0A2023490090C8780DF115030122191F0AF0D7FD20A0A8
:2046A000FDF7F0FD002407E00DF11500015D21A0FDF7E8FD601CC4B20A2CF5DB1EA0FDF759
:2046C000E1FD0020029003909DF8140000F01F00401EC0B28DF808009DF816009DF815103D
:2046E00040EA0120ADF80A009DF818009DF8171040EA0120ADF80C00BDF80C30BDF80A208B
:204700009DF808100DA0FDF7BDFD02A807F0D0F80AB010BD1B1C00000B0B0020230B0020E6
:204720004379707265737320747020726561643A00000000257820000D0A00004379707224
:20474000657373207470206E756D626572202564205820256409592025640D0A0000000075
:204760007047000008B50121082003F007FBC020ADF8000010208DF8030003208DF802009F
:204780006946044801F0A2F8C021024801F07DF908BD0000000C014010B500200F4908604A
:2047A0000F48006820F070400D4908600846006840F04050086001200A49C1F89C010220F2
:2047C0000CF096FC01200549086002200CF090FC00200449C1F8980110BD000098812142C2
:2047E000000C01400080214270B5054600241748006820F07040154908600846006840F0C2
:2048000000400860002616E000201149086002200CF06EFC01200F49C1F898016006040E27
:204820000B487C38006808B1601CC4B201200CF05FFC701CC6B2082EE6DB15B9FFF7ACFF7C
:2048400001E000F0C1F8204670BD0000000C0140988121420080214210B50F48006820F0FB
:2048600070400D4908600846006840F04050086001200A4908600A49C1F8980104200CF04B
:2048800037FC00200549086004200CF031FC00200349C1F8980110BD000C01409C8121426A
:2048A0000080214210B50F48006820F070400D4908600846006840F04050086000200A49C2
:2048C00008600A49C1F89C0104200CF011FC0120054908600549C1F89C0104200CF008FCFB
:2048E00010BD0000000C0140988121420080214270B504461848006820F070401649086081
:204900000846006840F04050086000201349086000251EE0E00920B101201049091D0860F0
:2049200003E000200D49091D08606006040E02200CF0DEFB01200949086002200CF0D8FB55
:2049400000200749C1F8980102200CF0D1FB681CC5B2082DDEDB70BD000C014098812142CC
:204960000080214210B500241448006820F07040124908600846006840F000400860012075
:204980000F4908600CF0B4FB01200E49C1F898010CF0AEFB07E0601CC4B2FA2C03DDFFF768
:2049A00081FF012010BD0648803800680028F2D10349091F086000BFF4E70000000C01406D
:2049C0009C8121420080214210B500200F4908600F48006820F070400D49086008460068DC
:2049E00040F04050086000200A49C1F89C0102200CF07EFB01200549086002200CF078FBC7
:204A000000200449C1F8980110BD000098812142000C01400080214208B501211C2003F050
:204A2000ADF90220ADF8000010208DF8030003208DF802006946044800F048FF0221024808
:204A400001F021F808BD0000000801402DE9FF5F8046894615461E4600270020039002900A
:204A60008346824601900090B8F1010F06D0B8F1020F0AD0B8F1030F15D10DE04FF0340A56
:204A8000312001903320009014E04FF0580A55200190562000900DE04FF0600A5D2001900C
:204AA0005E20009006E04FF0340A312001903320009000BF00BF701C00EBD071C1F3470B84
:204AC000002400E0641C42F210708442FAD300988DF80C008DF80D60FF208DF80E0002A993
:204AE00003A806F08FFF01988DF80C008DF80D901248007840F002008DF80E0002A903A84E
:204B000006F080FF544612E0E0B240F080008DF80C0002A903A806F075FF9DF80900E85526
:204B20009DF80A10781C2954B81CC7B2641C0AEB0B00A042E8D8BDE8FF9F00000A0B0020CE
:204B40002DE9F04F87B00746894615461E4600240020059006900390049082468346029035
:204B600001900090012F04D0022F0BD0032F17D10FE04FF0340B3120029033200190712025
:204B8000009016E04FF0580B55200290562001900FE04FF0600B5D2002905E20019008E040
:204BA0004FF0340B31200290332001907120009000BF00BF002000E0401C42F21071884236
:204BC000FAD301988DF814008DF81560FF208DF8160003A905A806F015FF02988DF814008C
:204BE0008DF815902948007840F002008DF8160003A905A806F006FF0A2E02DD4FF0050A1C
:204C000004E0701C00EBD071C1F3470AD84614E048F080008DF8140003A905A806F0F2FE51
:204C20009DF80D0028559DF80E10601C2954A01CC4B208F1010000F0FF080BEB0A00404501
:204C4000E6DC012F1FD10A2E1DDDDDF8008016E008F0FF0040F080008DF8140003A905A85C
:204C600006F0F0FE9DF80F0028559DF81010601C2954A01CC4B208F101001FFA80F800982C
:204C800050444045E4DC07B0BDE8F08F0A0B00202DE9F04F87B08046894616461C4600202C
:204CA0000590069003900490002582468346029001900090B8F1010F06D0B8F1020F0CD014
:204CC000B8F1030F17D10FE04FF0340B31200290332001907120009016E04FF0580B5520CF
:204CE0000290562001900FE04FF0600B5D2002905E20019008E04FF0340B312002903320C8
:204D000001907120009000BF00BF0A2C02DD4FF0050A04E0601C00EBD071C1F3470A5F46CA
:204D200010E08DF81470705D8DF81500681C305C8DF81600A81CC5B203A905A806F062FE7E
:204D4000781CC7B20BEB0A00B842EADCB8F1010F25D10A2C23DDA4F1090000EBD071C1F323
:204D6000470A009F17E070208DF8140038128DF81500F8B28DF81600705D8DF81700681C0D
:204D8000305C8DF81800A81CC5B203A905A806F059FE781C87B200985044B842E3DC0198BE
:204DA0008DF814008DF81540FF208DF8160003A905A806F027FE02988DF814008DF81590F5
:204DC0000648007840F001008DF8160003A905A806F018FE07B0BDE8F08F00000A0B0020CC
:204DE00010B50A200CF060F90121034800F042FE012000F02BF910BD000C014010B50A2094
:204E00000CF052F90221074800F034FE30B90120054908704103054800F035FE022000F021
:204E200015F910BD000C01407F0200200018014010B51021054800F01DFE10B900200449CC
:204E40000870102000F002F910BD0000001001408002002010B520211E4800F00BFE28B9B9
:204E600001201D490870202000F0F0F8402000F0F3F8012822D1402000F0E8F86C2006F012
:204E800077FB164908800846018815A0FDF7FAF96D2006F06DFB174908800846018816A0E6
:204EA000FDF7F0F96E2006F063FB184908800846018817A0FDF7E6F900F02CF94FF4007021
:204EC00000F0CAF8012804D116494871400200F0BDF810BD00100140800200209C020020A5
:204EE0004572726F7220544142313A20253033780D0A00009E0200204572726F7220544190
:204F000042323A20253033780D0A0000A00200204572726F7220544142333A20253033785C
:204F20000D0A0000230B00200EB501F093FA01F0FFF808F0D9FE0121084602F01FFF002173
:204F4000012000F0A3FC0120019000208DF8080010208DF8090001A800F092F801210846F1
:204F600000F094FC0220019000208DF8080010208DF8090001A800F083F80421022000F048
:204F800085FC1020019000208DF8080010208DF8090001A800F074F80521022000F076FCB5
:204FA0002020019000208DF808000C208DF8090001A800F065F80621032000F067FC4020C6
:204FC000019000208DF8080008208DF8090001A800F056F806208DF8000002208DF80100A3
:204FE00003208DF8020001208DF80300684602F04BF907208DF8000002208DF801008DF8A1
:20500000020001208DF80300684602F03DF90A208DF8000002208DF8010000208DF8020011
:2050200001208DF80300684602F02EF917208DF8000002208DF8010000208DF802000120D4
:205040008DF80300684602F01FF90EBD014908607047000014040140014600200022074BA8
:205060001B6803EA0102054B14331B680B4013B10AB1012000E000207047000000040140BC
:20508000002123498279002A3AD00A46126803689A430B461A600A1D126803689A430B1D66
:2050A0001A60027911440A6803681A430A60184A0832126803689A43154B08331A601A1D58
:2050C000126803689A43124B0C331A604279102A0ED11A1F126803681A430D4B08331A609C
:2050E0001A1D126803681A43094B0C331A600DE00749427911440A6803681A430A6005E054
:20510000027911440A6803689A430A607047000000040140B148007800F0010018B1012053
:20512000AF49087065E0AD48007800F00200022803D10120AB4908705BE0A848007800F03D
:205140000400042803D10120A749087051E0A348007800F00800082803D10120A3490870AD
:2051600047E09E48007800F01000102803D101209F4908703DE09948007800F0200020284F
:2051800003D101209B49087033E09448007800F04000402803D101209749087029E08F4892
:2051A000007800F08000802803D10120934908701FE08A48008800F48070B0F5807F03D161
:2051C00001208F49087014E08448008800F40070B0F5007F03D101208A49087009E07F489E
:2051E000008800F48060B0F5806F02D10120864908708648007800F0010018B10120844996
:20520000087065E08148007800F00200022803D10120804908705BE07C48007800F00400D3
:20522000042803D101207C49087051E07748007800F00800082803D101207849087047E02B
:205240007248007800F01000102803D10120744908703DE06D48007800F02000202803D144
:2052600001207049087033E06848007800F04000402803D101206C49087029E063480078BB
:2052800000F08000802803D10120684908701FE05E48008800F48070B0F5807F03D101202E
:2052A0006349087014E05948008800F40070B0F5007F03D101205F49087009E05348008804
:2052C00000F48060B0F5806F02D101205A4908705A48007800F0010018B101205849087049
:2052E0007BE05648007800F00200022803D101205449087071E05148007800F00400042895
:2053000003D101205049087067E04C48007800F00800082803D101204C4908705DE047483E
:20532000007800F01000102803D101204849087053E04248007800F02000202803D101203D
:205340004449087049E03D48007800F04000402803D10120404908703FE03848007800F08D
:205360008000802803D101203C49087035E03348008800F48070B0F5807F03D101203849FD
:2053800008702AE02D48008800F40070B0F5007F03D10120334908701FE02848008800F432
:2053A0008060B0F5806F03D101202F49087014E02248008800F40060B0F5006F03D1012051
:2053C0002A49087009E01D48008800F48050B0F5805F02D101202649087070479C02002074
:2053E000A2020020A4020020A3020020A5020020A6020020A7020020A8020020A902002071
:20540000AA020020AB020020AC0200209E020020AD020020AF020020AE020020B002002023
:20542000B1020020B2020020B3020020B4020020B5020020B6020020B7020020A0020020D0
:20544000B8020020B9020020BA020020BB020020BC020020BD020020BE020020BF02002060
:20546000C0020020C1020020C2020020C3020020C402002010B5074809F05AFE04460648BB
:20548000844205D90348001F844201D2012010BD0020FCE7041002080020000810B506481B
:2054A00009F046FE044605482040B0F1005F01D1012010BD0020FCE7001002080000FF2FAD
:2054C00010B5084C08E00849204609F0F1FD0649884200D110BD241D04488442F3D300BF9E
:2054E000F8E7000000F80708AA5555AAFFFF070801480249086070470020000808ED00E00B
:205500000149C860704700000020024030B5044604254FF4302000F085F80546042D17D144
:205520000C48006940F002000A49086108464461006940F0400008614FF4302000F072F89E
:2055400005460448006941F6FD71084001490861284630BD0020024004200B49C96801F054
:20556000010109B101200EE00749C96801F0040109B1022007E00449C96801F0100109B1EC
:20558000032000E004207047002002400348006940F080000149086170470000002002409B
:2055A00078B506460C46042500200090E80200F039F80546042D24D11348006940F00100D6
:2055C000114908613480E80200F02CF80546042D10D1B01C0090200C00990880E80200F076
:2055E00021F805460848006941F6FE7108400649086106E00448006941F6FE710840024914
:205600000861284678BD000000200240024803494860034848607047230167450020024002
:20562000AB89EFCD00B502460423FFF795FF034603E0FFF791FF0346521E012B01D1002A39
:20564000F7D102B90523184600BD00002DE9F04705460C464FF48051244800F014FAA988EB
:20566000081206F091F9287906F08EF9E879A97940EA012A002705E0A91DC85D06F084F930
:20568000781C87B20AF102008742F5DBFF2006F07BF98046FF2006F077F9814649EA0820B1
:2056A000A080FF2006F070F9A071FF2006F06CF9E071E079A17940EA0126C62E0BDA0027AC
:2056C00007E0FF2006F060F9B91CA21D5054781C87B2B742F5DBFF2006F056F94FF480512F
:2056E000024800F0D2F90020BDE8F087000C014070B504464FF48051174800F0C4F9A18864
:20570000081206F041F9207906F03EF9A18813A0FCF7B8FDE079A17940EA012600250AE022
:20572000A11D485D06F030F9A01D415D12A0FCF7A9FD681C85B2B01C8542F1D3AA2006F06F
:2057400023F90EA0FCF79EFD4FF48051024800F09CF9002070BD0000000C014046706761F6
:205760002073656E6420636F6D6D616E642025782C6461743A000000257820000D0A000030
:2057800008B501211E4800F02DF901211D4800F029F94FF48060ADF8000004208DF80300A1
:2057A00003208DF802006946174800F08FF80420ADF800008DF8030003208DF80200694610
:2057C000124800F083F84FF40040ADF8000004208DF8030003208DF8020069460C4800F093
:2057E00075F80220ADF8000004208DF8030003208DF802006946054800F068F808BD00000E
:205800000001300000023000000C0140001001400008014008B54FF48040ADF800000420B5
:205820008DF8030003208DF802006946164800F04DF84FF40040ADF8000004208DF8030020
:2058400003208DF8020069460F4800F03FF84FF40060ADF8000004208DF8030003208DF8D5
:2058600002006946084800F031F84FF48060ADF8000004208DF8030003208DF80200694641
:20588000014800F023F808BD0014014030B500228B071C0F0F2303FA04F20B4B8C1053F874
:2058A00024309343084C8D1044F8253023468C1053F824308C07240F00FA04F42343024C2C
:2058C0008D1044F8253030BD080001402DE9F041024600250026002000230024002791F873
:2058E00003C00CF00F0591F803C00CF0100CBCF1000F03D091F802C04CEA050591F800C00E
:20590000BCF1000F31D0146800202BE04FF0010C0CFA00F3B1F800C00CEA03069E4220D1A5
:2059200083004FF00F0C0CFA03F7BC4305FA03FC4CEA040491F803C0BCF1280F06D14FF009
:20594000010C0CFA00FCC2F814C00AE091F803C0BCF1480F05D14FF0010C0CFA00FCC2F892
:2059600010C0401C0828D1D31460B1F800C0BCF1FF0F34DD546800202EE000F1080C4FF050
:20598000010808FA0CF3B1F800C00CEA03069E4221D183004FF00F0C0CFA03F7BC4305FAE8
:2059A00003FC4CEA040491F803C0BCF1280F05D100F1080C08FA0CF8C2F8148091F803C0FF
:2059C000BCF1480F07D100F1080C4FF0010808FA0CF8C2F81080401C0828CED35460BDE8C8
:2059E000F0810000F0B50A46002300240021002500F00046B6F1004F02D11D4EF16901E00F
:205A00001B4E7168C0F3034583B200F44016B6F5401F08D121F07061154E766826F07066D8
:205A2000134F7E6012E000F48016B6F5801F06D1032606FA05F4A14341F0706106E0460D48
:205A4000360103FA06F6B14341F0706122B1460D360103FA06F6314300F00046B6F1004F2A
:205A600002D1034EF16101E0014E7160F0BD0000000001400246002093680B400BB1012036
:205A800000E000207047416170470161704702468A4201D3501A7047C1F1FF301044FAE7BE
:205AA00000B5E9B0D02135A8FCF75FFED02101A8FCF75BFE48F20200ADF8D80001A935A854
:205AC000FFF7C4FD04A8FEF7D3FA69B000BD000002461F2A78D2DFE802F07710161B202639
:205AE0002B30353A3F7777777777777777777744494E53585D62676C7200364808604FF444
:205B00000040888062E033480860402088805DE0304808604014888058E02E4808604FF4DE
:205B20008040888052E02B480860C01488804DE0284808608014888048E0264808604015C0
:205B4000888043E023480860001588803EE0214808608020888039E01E480860801588800F
:205B600034E01D480860082088802FE01A480860102088802AE018480860C014888025E050
:205B8000144808600120888020E014480860801588801BE0114808604015888016E00F4851
:205BA00008608014888011E00C480860401488800CE0094808602020888007E004E00848D0
:205BC0000860C014888001E00020704700BF0120FBE7000000180140000C0140001401400C
:205BE000000801407FB505460C4602A92846FFF76FFF88B169462046FFF76AFF60B1BDF89B
:205C00000C10029809F0DCFBBDF80410009809F0D1FB012004B070BD0020FBE710B50446C5
:205C200005488089820005492046FCF7FDFC0248007B8006000E10BD604500201E3F002084
:205C40000148006870470000CC02002008B50121402002F093F84FF48070ADF8000010202A
:205C60008DF8030003208DF8020069460148FFF72DFE08BD0018014008B50121402002F08A
:205C80007DF84FF40040ADF8000010208DF8030003208DF8020069460148FFF717FE08BD3D
:205CA0000018014008B50121082002F067F80121092002F063F801210A48FFF793FE01217E
:205CC0000948FFF78FFE0820ADF8000010208DF8030003208DF8020069460448FFF7F6FDDD
:205CE00008BD00000001300000023000000C014008B50121082002F041F84FF40060ADF8B5
:205D0000000010208DF8030003208DF8020069460148FFF7DBFD08BD000C014008B501216A
:205D2000402002F02BF80120ADF8000010208DF8030003208DF8020069460248FFF7C6FD14
:205D400008BD00000018014008B50121202002F015F84FF48070ADF8000010208DF8030077
:205D600003208DF8020069460148FFF7AFFD08BD0014014008B50121202001F0FFFF4FF474
:205D80000070ADF8000010208DF8030003208DF8020069460148FFF799FD08BD00140140EE
:205DA00008B50121202001F0E9FF4FF48050ADF8000010208DF8030003208DF80200694622
:205DC0000148FFF783FD08BD0014014008B50121202001F0D3FF4FF40050ADF800001020A0
:205DE0008DF8030003208DF8020069460148FFF76DFD08BD0014014008B50121082001F007
:205E0000BDFF2020ADF8000010208DF8030003208DF8020069460248FFF758FD08BD000076
:205E2000000C014008B50121402001F0A7FF4020ADF8000010208DF8030003208DF80200D8
:205E400069460248FFF742FD08BD00000018014008B50121042001F091FF4FF40060ADF82A
:205E6000000010208DF8030003208DF8020069460148FFF72BFD08BD0008014008B50121BD
:205E8000402001F07BFF4FF40050ADF8000010208DF8030003208DF8020069460148FFF7AF
:205EA00015FD08BD0018014008B50121402001F065FF4FF48040ADF8000010208DF80300BE
:205EC00003208DF8020069460148FFF7FFFC08BD0018014008B50121402001F04FFF4FF450
:205EE0000060ADF8000010208DF8030003208DF8020069460148FFF7E9FC08BD001801404A
:205F000008B50121402001F039FF4FF48050ADF8000010208DF8030003208DF80200694650
:205F20000148FFF7D3FC08BD0018014008B50121402001F023FF4FF48060ADF800001020EB
:205F40008DF8030003208DF8020069460148FFF7BDFC08BD0018014008B50121402001F01A
:205F60000DFF8020ADF8000010208DF8030003208DF8020069460248FFF7A8FC08BD000016
:205F80000018014010B504461F2C4DD2DFE804F04C101316191C1F2225282B4C4C4C4C4C85
:205FA0004C4C4C4C4C2E3134373A3D4043464900FFF762FE39E0FFF735FF36E0FFF75EFF10
:205FC00033E0FFF771FF30E0FFF784FF2DE0FFF797FF2AE0FFF726FF27E0FFF7A7FF24E05A
:205FE000FFF7BAFF21E0FFF731FE1EE0FFF75AFE1BE0FFF717FF18E0FFF77AFE15E0FFF728
:206000008DFE12E0FFF7A0FE0FE0FFF7B3FE0CE0FFF7C6FE09E0FFF7D9FE06E0FFF7ECFEB7
:2060200003E0FFF715FF00E000BF00BF10BD00BFFEE7F7B5002000BF4DE0019B02EBC001A2
:206040004C689DF8001012F83050A9422CD012F83010FF2928D012F83010012910D19DF822
:206060000010022903D09DF80010042908D14FF47A75019901FB05F302EBC0014C6813E052
:206080009DF8001001290FD112F83010022903D012F83010042907D1019B02EBC0014968BF
:2060A0004FF47A7501FB05F4A34212D9042108E002EBC1064D1E02EBC507A0CFA0C64D1EC4
:2060C000E9B28142F4DC02EBC105DDE90067C0C503E0411CC8B20528AFDB00BFFEBD000042
:2060E00010B500200F4908600F48006820F070400D4908600846006840F0405008600020C0
:206100000A49C1F89C0102200AF0F2FF01200549086002200AF0ECFF00200449C1F898012C
:2061200010BD000098812142000C01400080214208B50121202001F021FE4020ADF80000B2
:2061400004208DF8030069460148FFF7BFFB08BD0014014008B50121082001F00FFEC020EC
:20616000ADF8000010208DF8030003208DF8020069460448FFF7AAFBC0210248FFF785FCE0
:2061800008BD0000000C014010B500200F4908600F48006820F070400D4908600846006855
:2061A00040F04050086001200A49C1F89C0102200AF09EFF01200549086002200AF098FFAA
:2061C00000200449C1F8980110BD000098812142000C01400080214208B50121202001F077
:2061E000CDFD2020ADF8000003208DF8020048208DF8030069460248FFF768FB08BD00003F
:206200000014014070B5054600241748006820F07040154908600846006840F000400860BA
:20622000002616E000201149086002200AF060FF01200F49C1F898016006040E0B487C389B
:20624000006808B1601CC4B201200AF051FF701CC6B2082EE6DB15B9FFF796FF01E0FFF795
:206260003FFF204670BD0000000C0140988121420080214270B504461848006820F07040AA
:20628000164908600846006840F04050086000201349086000251EE0E00920B1012010491E
:2062A000091D086003E000200D49091D08606006040E02200AF01CFF0120094908600220BD
:2062C0000AF016FF00200749C1F8980102200AF00FFF681CC5B2082DDEDB70BD000C014060
:2062E000988121420080214210B50F48006820F070400D4908600846006840F0405008605F
:2063000001200A4908600A49C1F8980104200AF0EFFE00200549086004200AF0E9FE0020F6
:206320000349C1F8980110BD000C01409C8121420080214210B50F48006820F070400D49A8
:2063400008600846006840F04050086000200A4908600A49C1F89C0104200AF0C9FE01206D
:20636000054908600549C1F89C0104200AF0C0FE10BD0000000C014098812142008021426E
:2063800010B500241448006820F07040124908600846006840F00040086001200F4908605E
:2063A0000AF0A6FE01200E49C1F898010AF0A0FE07E0601CC4B2FA2C03DDFFF7BBFF01202D
:2063C00010BD0648803800680028F2D10349091F086000BFF4E70000000C01409C81214254
:2063E0000080214270B5044600250BF00FF8C4F3074000F010F8C4F3072000F00CF804F068
:20640000F80000F008F8002000F005F805460BF002F8284670BD10B50446204605F0AEFB99
:2064200010BD70B504460D460AF0F0FFC4F30740FFF7F1FFC4F30720FFF7EDFF04F0F80153
:20644000091DC8B2FFF7E7FF2846FFF7E4FF0AF0E2FF70BD08B50121182001F08FFC30208E
:20646000ADF8000048208DF8030003208DF8020069460848FFF72AFA0320ADF80000482094
:206480008DF8030003208DF8020069460248FFF71DFA08BD00100140000C01402DE9F14F0B
:2064A00086B000200590049001F046F858B306980DF018F980462B4A2B4B0CF015FD06466C
:2064C00000222A4B0DF024F802460B46CDE90001002027490CF008FD0022264BCDE90201DF
:2064E0000CF002FD04460022234B0CF0D1FE82460CF014FC059005980DF0A0FA80B240F4F9
:206500008060049029E006980DF0ECF88046154A154B0CF0E9FC82460022144B0CF0F8FFDD
:20652000064632460B46002011490CF0DDFC04460CF0F4FB059005980DF0D4F880460F4AA8
:206540000F4B0CF0D1FC064600220E4B0CF018FC04460CF021FE80B20490049807B0BDE81E
:20656000F08F00009A9999999999E93F0000F03F00405A400000594000009040F6285C8F62
:20658000C2F5D83F0000E03F08B50121192001F0F5FB0720ADF8000010208DF8030003206E
:2065A0008DF8020069460448FFF790F907210248FFF769FA08BD0000001001402DE9F14FA3
:2065C00086B000200590049000F0B6FF58B306980DF088F880462B4A2B4B0CF085FC0646F7
:2065E00000222A4B0CF094FF02460B46CDE90001002027490CF078FC0022264BCDE90201D9
:206600000CF072FC04460022234B0CF041FE82460CF084FB059005980DF010FA80B240F419
:206620008060049029E006980DF05CF88046154A154B0CF059FC82460022144B0CF068FF6C
:20664000064632460B46002011490CF04DFC04460CF064FB059005980DF044F880460F4A37
:206660000F4B0CF041FC064600220E4B0CF088FB04460CF091FD80B20490049807B0BDE8AF
:20668000F08F00009A9999999999E93F0000F03F00B070400000594000009040F6285C8FBB
:2066A000C2F5D83F0000E03FF7B5002000BF4DE0019B02EBC0014C689DF8001012F8305008
:2066C000A9422CD012F83010FF2928D012F83010012910D19DF80010022903D09DF80010CC
:2066E000042908D14FF47A75019901FB05F302EBC0014C6813E09DF8001001290FD112F8C6
:206700003010022903D012F83010042907D1019B02EBC00149684FF47A7501FB05F4A342E5
:2067200012D2042108E002EBC1064D1E02EBC507A0CFA0C64D1EE9B28142F4DC02EBC1056F
:20674000DDE90067C0C503E0411CC8B20528AFDB00BFFEBDF0B5ADF28C6D06464FF4CF61A0
:2067600005A8FCF702F8012E02D0032E7DD145E02220ADF8180000208DF816004FF49D74CC
:2067800040F2AE3000EB44076DA103C9CDE9030120128DF81000E0B28DF8110038128DF861
:2067A0001200F8B28DF813000398CDF81A000498CDF81E0005A801F0C2FE2220ADF818002F
:2067C000614A07CA8DE807000098CDF81A00BDF80400ADF81E0000250DE005EB45005B49E3
:2067E000014405A80A88ADF820208978817301F0A6FE681C85B2A542EFDB9AE02220ADF8D9
:20680000180000208DF816004FF4857540F21E3000EB4500871D4EA103C9CDE90301281265
:206820008DF81000E8B28DF8110038128DF81200F8B28DF813000398CDF81A000498CDF895
:206840001E0005A801F07BFE2220ADF818003E4A0C3207CA8DE807000098CDF81A00BDF8C5
:206860000400ADF81E0000245FE061E004EB44003949014405A80A88ADF82020897881739A
:2068800004EB44003449085C0C280BD104EB440008444078072805D104EB44000844807821
:2068A000882811D004EB44002B49085C0C2817D104EB4400084440782D2811D104EB44007F
:2068C0000844807801280BD109218DF81B10642105A8017401F033FE07218DF81B1022E0F2
:2068E00004EB44001C49085C2C2819D104EB440008444078482813D104EB4400084480785C
:2069000012280DD109218DF81B10012105A8C1739021017401F013FE07218DF81B1002E0A0
:2069200005A801F00CFE601C84B2AC429EDB00E000BF00BF09A0FBF7A5FC0DF28C6DF0BD57
:206940000006000000000000983D0108740B00200006010000000000220F002053617665CD
:20696000203938332D39383820636F6465204F4B2121210D0A00000010B50446012C02D080
:20698000032C0DD106E04FF4847208490848FBF74BFE06E07E2207490548FBF745FE00E0B7
:2069A00000BF00BF04A0FBF76DFC10BD8114002018210020031400205361766520706F7743
:2069C0006572206F66662074696D696E67204F4B2121210D0A00000010B50446012C02D09B
:2069E000032C0DD106E04FF4847208490848FBF71BFE06E0BB2207490548FBF715FE00E07A
:206A000000BF00BF04A0FBF73DFC10BD40120020181F0020481300205361766520706F7713
:206A20006572206F6E2074696D696E67204F4B2121210D0A0000000030B5ADF2846D0546E6
:206A40000C464FF4CF627A4903A8FBF732FE0C2C78D2DFE804F0061F31435465788EA0B2F9
:206A6000C4D674A207CA8DE807000098CDF812000198CDF81600BDF80800ADF81A009DF825
:206A80000A008DF81C0003A802F0E0FE6CA0FBF7F9FBC9E073A103C9CDE901010198CDF83F
:206AA0001200BDF80800ADF8160003A802F0CEFE6EA0FBF7E7FBB7E073A103C9CDE90101D2
:206AC0000198CDF812009DF808008DF8160003A802F0BCFE6EA0FBF7D5FBA5E076A103C97F
:206AE000CDE901010198CDF812000298CDF8160003A802F0ABFE72A0FBF7C4FB94E07AA161
:206B000003C9CDE901010198CDF812000298CDF8160003A802F09AFE75A0FBF7B3FB83E0BF
:206B20007CA103C9CDE901010198CDF812009DF808008DF8160003A802F088FE77A0FBF7E0
:206B4000A1FB71E06FE07EA103C9CDE901010198CDF81200BDF80800ADF816009DF80A00CF
:206B60008DF8180003A802F071FE77A0FBF78AFB5AE07EA103C9CDE901010198CDF8120091
:206B80009DF808008DF8160003A802F05FFE79A0FBF778FB48E07FA103C9CDE901010198E0
:206BA000CDF812009DF808008DF8160003A802F04DFE7AA0FBF766FB36E081A103C9CDE9B7
:206BC00001010198CDF812009DF808008DF8160003A802F03BFE7CA0FBF754FB24E083A1B0
:206BE00003C9CDE901010198CDF812009DF808008DF8160003A802F029FE7EA0FBF742FB58
:206C000012E083A103C9CDE901010198CDF812009DF808008DF8160003A802F017FE7EA062
:206C2000FBF730FB00E000BF00BF0DF2846D30BD28440108000900000800FF00FF00FF0079
:206C4000536574206C636D20706963747572653A736F6C696420636F6C6F72204F4B212100
:206C6000210D0A000004010000FF0000536574206C636D20706963747572653A726762209F
:206C80004F4B2121210D0A000003020000000000536574206C636D20706963747572653AFD
:206CA000626C61636B20616E64207768697465204F4B2121210D0A000006030000080006F8
:206CC000536574206C636D20706963747572653A636865636B6572626F617264204F4B211E
:206CE00021210D0A00000000000604000800FF00536574206C636D20706963747572653A4C
:206D0000677261797363616C65204F4B2121210D0A00000000030500000000005365742030
:206D20006C636D20706963747572653A636F6C6F72626172204F4B2121210D0A0000000039
:206D40000005060800FF0000536574206C636D20706963747572653A636F6C6F72677261EA
:206D600079204F4B2121210D0A0000000003070801000000536574206C636D2070696374FB
:206D80007572653A666C69636B6572204F4B2121210D0A0000030800010000005365742001
:206DA0006C636D20706963747572653A63726F737374616C6B204F4B2121210D0A00000037
:206DC0000003090001000000536574206C636D20706963747572653A616C69676E6D656E7D
:206DE00074204F4B2121210D0A00000000030A0001000000536574206C636D207069637485
:206E00007572653A7470204F4B2121210D0A000000030B0001000000536574206C636D201D
:206E2000706963747572653A7364204F4B2121210D0A000010B5FEF703FF10BD10B5ADF521
:206E4000CF6D04464FF4CF616846FBF78EFC00208DF802008DF800008DF80100012C02D05E
:206E6000032C06D100E000BF0649684603F0E2FF00E000BF00BF04A0FBF704FA0DF5CF6D6C
:206E800010BD0000182100204D616E75616C207465737420706F776572206F6666204F4B2C
:206EA0002121210D0A00000010B5ADF5CF6D04464FF4CF620A496846FBF7FBFB012C02D00F
:206EC000032C05D100E000BF684601F0B3FA00E000BF00BF03A0FBF7D5F90DF5CF6D10BDF6
:206EE000B03D01084D616E75616C207465737420706F776572206F6E204F4B2121210D0AE0
:206F00000000000010B5ADF5D16D8E48007800287ED08D4800780C287BD2DFE800F0061469
:206F20001B222945639B35CADADB8848016888A0FBF7A8F901208449087084480068401C0A
:206F400082490860E4E00320FFF704FC02207E490870DDE00320FFF73FFD03207A49087050
:206F6000D6E00320FFF7A0FF042077490870CFE005210320FFF760FD0B2073490870FFF7A7
:206F800059FF81490860C3E04FF4CF627F4904A8FBF78FFB7EA0FBF775F904A801F0CFFA7C
:206FA000092069490870B3E084A30FCB0DF5CF640FC44FF4CF616846FBF7D7FB83A0FBF7E8
:206FC00061F92420ADF804000E220DF5CF610DF10600FBF729FB684601F0B1FA06205A49DB
:206FE000087095E08348007910BB83A00068CDF884064FF4CF6103A8FBF7B7FB7FA0FBF7E8
:2070000041F92720ADF8100002207A49087001E07FE07CE000204870BDF88406ADF8120073
:207020009DF886068DF8140003A801F088FA10E07048407948B17C48007830B90720424947
:207040000870FFF7F7FE504908606A484079764908705DE0FFF7EEFE04464B48016820465F
:20706000FEF715FDB0F57A7F22D370A00068CDF884064FF4CF6103A8FBF777FB2720ADF841
:20708000100002205B49087000204870BDF88406ADF812009DF886068DF8140003A801F07E
:2070A0004EFA06202849087061A0FBF7EBF800BF2EE04FF4CF62654904A8FBF7FAFA64A01E
:2070C000FBF7E0F804A801F03AFA0A201E4908701EE01DE0FFF7AEFE04462B4801682046E3
:2070E000FEF7D5FC41F2883188420FD36248FBF7C9F80320FFF740FC0320FFF79FFE0020AA
:20710000114908704FF47A7009F0CEFF00E000BF11E05A48007870B10A48007858B9564866
:20712000FBF7B0F80020084908700320FFF724FC0320FFF783FE03480078504908700DF523
:20714000D16D10BD80020020DD1D0020E41D002031372E37696E636820706F776572206FFC
:207160006E207465737420636F756E743A2564212121212121212121212121212121212184
:2071800021212121210D0A00E01D0020A04A01084D616E75616C2074657374207365742059
:2071A000207470266B6E6F62206D616E756661637475726572212121210D0A00000C0258CD
:2071C000012C09600384003C003C00004D616E75616C207465737420636F6E6669672073B3
:2071E000796E617074696373207470212121210D0A000000230B0020000101004D616E75A4
:20720000616C20746573742073746172742073796E617074696373207470206D6F6465218B
:207220002121210D0A000000E81D0020000103004D616E75616C207465737420636C6561B8
:2072400072207470212121210D0A0000185101084D616E75616C2074657374207374617293
:20726000742073796E617074696373206B6E6F62212121210D0A0000EC590108DE1D0020CE
:2072800000BFFEE77047000070B5002100230F22C47804B3154C246804F4E064C4F5E064E0
:2072A000210AC1F10403CA40447804FA03F184781440214309010E4C0678A155047804F036
:2072C0001F050124AC4005786D11AD0005F1E025C5F8004109E0047804F01F050124AC404A
:2072E000044D0678761145F8264070BD0CED00E000E400E080E100E002490143024A11603E
:20730000704700000000FA050CED00E030B597B0482105A8FBF729FA3AA00068049003228C
:2073200004A9022008F094F8472005AB0122591E0090022007F08AFF0020029003909DF83D
:20734000140000F00F059DF81400FF2803D19DF81500FF2804D0294605A8FCF79BFE00B96B
:2073600000259DB128A0FAF78DFF002406E005A8015D28A0FAF786FF601CC4B2C5EBC5009B
:20738000401CA042F3DC25A0FAF77CFF002433E0C4EBC400401C05A9085C0121C1EB201099
:2073A000C0B28DF80800C4EBC400C01C05A9095CC4EBC400801C05AA105C41EA0020ADF852
:2073C0000A00C4EBC400401D05A9095CC4EBC400001D105C41EA0020ADF80C00BDF80C30D7
:2073E000BDF80A209DF808100DA0FAF74BFF02A804F05EFA601CC4B20DB1AC42C8DB17B01B
:2074000030BD0000FF0940007470206461743A200000000025237820000000000D0A0000A9
:207420004E6F766174656B207470206E756D62657220256420583A20256409593A2025647E
:207440000D0A00002DE9F14F86B000200590049000F072F860B306980CF044F980464FF0F7
:2074600033322C4B0BF040FD064600222A4B0CF04FF802460B46CDE90001002027490BF0F7
:2074800033FD0022264BCDE902010BF02DFD04460022244B0BF0FCFE82460BF03FFC0590E8
:2074A00005980CF0CBFA80B240F4806004902AE006980CF017F980464FF03332154B0BF01B
:2074C00013FD82460022144B0CF022F8064632460B46002011490BF007FD04460BF01EFC50
:2074E000059005980CF0FEF880460F4A0F4B0BF0FBFC064600220E4B0BF042FC04460BF0B8
:207500004BFE80B204900498401C80B207B0BDE8F08F00003333E33F0000F03F00006E40F2
:207520000000594000009040F6285C8FC2F5D83F0000E03F7047000010B50C48007890B95B
:20754000002004F015F80A49086001200749087007480068012806D005480068022802D0FF
:207560000020034908600248006810BD2C0B0020300B002010B588B01AA207CA05AB07C302
:207580001BA207CA02AB07C31C48FAF77BFE02AA05A91BA0FAF776FE0120034600220146CB
:2075A00000901EA0FAF76EFE0120034600220146009024A0FAF766FEFEF772FA0446214692
:2075C0002AA0FAF75FFEFFF7B7FF044621462CA0FAF758FE3148007810B131A0FAF752FE5F
:2075E00008B010BD4D617220333020323032330031313A33313A303300000000A4590108D9
:20760000436F6D70696C652074696D653A2025732020202020202573200D0A0053746D33EA
:207620003220736F6674776172652076657273696F6E3A205625782E25782E25782E2578B9
:20764000200D0A0053746D33322068617264776172652076657273696F6E3A205625782E4B
:2076600025782E25782E2578200D0A004650474120766572736F6E3A202578200D0A000097
:20768000506F77657220626F6172642076657269736F6E3A2025780D0A00000080020020DF
:2076A000413130206D616E75616C2074657374207374617274212121210D0A0070B5044652
:2076C0000D46012D05D10848008820430649088004E005480088A0430349088002480188FE
:2076E0004E2004F093FA70BD340B002070B5E8B0054600240CB12C4611E0D02134A8FBF704
:2077000034F8D0216846FBF730F848F20700ADF8D400694634A8FDF799FF6C4600BF4048BA
:20772000FAF7B0FD3FA0FAF7ADFD04F10800FCF79FFC0646314642A0FAF7A4FD04F10A0070
:20774000FCF796FC0646314640A0FAF79BFD04F10C00FCF78DFC064631463FA0FAF792FDD9
:2077600004F10E00FCF784FC064631463DA0FAF789FD04F11000FCF77BFC064631463CA06E
:20778000FAF780FD04F11200FCF772FC064631463AA0FAF777FD04F11400FCF769FC064664
:2077A000314639A0FAF76EFD04F11600FCF760FC0646314637A0FAF765FD04F11800FCF7D6
:2077C00057FC0646314636A0FAF75CFD04F11A00FCF74EFC0646314635A0FAF753FD04F159
:2077E0001C00FCF745FC0646314635A0FAF74AFD04F11E00FCF73CFC0646314634A0FAF7A3
:2078000041FD04F12000FCF733FC0646314635A0FAF738FD3848FAF735FD68B070BD00004D
:20782000C458010846706761206C636D20636F6E66696775726174696F6E3A200D0A000040
:20784000546870773A202564200D0A00546862703A202564200D0A005468643A20256420A0
:207860000D0A0000546866703A202564200D0A00547670773A202564200D0A0054766270DE
:207880003A202564200D0A005476643A202564200D0A0000547666703A202564200D0A00CC
:2078A0005265636F665F4D3A202564200D0A00005265636F665F4E3A202564200D0A00005D
:2078C0005265636F665F434F3A202564200D0A005265636F665F434C4B303A202564200D46
:2078E0000A0000005265636F665F434C4B313A202564200D0A000000745801082DE9F04FE1
:207900008DB0142108A8FAF730FF0020069007908246FFE00AEB4A00401C8249095C0AEB71
:207920004A00801C7F4A105C00F00F0041EA002008A921F82A000AEB4A00C01C1146085C18
:2079400001010AEB4A00801C105C41EA101008A901EB8A01488008A830F82A0028B908A810
:2079600000EB8A00408800287ED008A830F82A00B0F5487F78DA08A800EB8A004088B0F502
:20798000487FF7DA08A830F82A000028ECD008A800EB8A0040882028E6D008A830F82A007C
:2079A0000028E1D008A800EB8A0040886028DBD008A830F82A002028D6D008A800EB8A00B9
:2079C00040880028D0D008A830F82A002028CBD008A800EB8A0040882028C5D008A830F890
:2079E0002A002028C0D008A800EB8A0040886028BAD008A830F82A00B0F5407FB4D008A8EC
:207A000000EB8A004088B0F5407F7FD008A901EB8A0148880CF04AF880460BF063FE0446D4
:207A20000D4608A931F82A000CF040F880460BF059FE064632460B463BA0CDE90045FAF7C7
:207A400021FC8DF818A008A931F82A000CF02EF883460BF047FE00224FF07F53CDE90001B3
:207A60000BF016FC002200E050E0334BCDE902010BF03AFA80460022304B0BF009FC0646B2
:207A800000222F4B0BF07CF9044600222B4B0BF033FDCDE904010BF07FFB80B2ADF81A00AC
:207AA00008A901EB8A0148880CF000F883460BF019FE804600224FF07F530BF0E9FB002205
